{
  "contractName": "TestAaveFlashLoan",
  "abi": [
    {
      "inputs": [],
      "stateMutability": "nonpayable",
      "type": "constructor"
    },
    {
      "anonymous": false,
      "inputs": [
        {
          "indexed": false,
          "internalType": "string",
          "name": "message",
          "type": "string"
        },
        {
          "indexed": false,
          "internalType": "uint256",
          "name": "val",
          "type": "uint256"
        }
      ],
      "name": "Log",
      "type": "event"
    },
    {
      "inputs": [],
      "name": "ADDRESSES_PROVIDER",
      "outputs": [
        {
          "internalType": "address",
          "name": "",
          "type": "address"
        }
      ],
      "stateMutability": "view",
      "type": "function"
    },
    {
      "inputs": [],
      "name": "CORE",
      "outputs": [
        {
          "internalType": "address",
          "name": "",
          "type": "address"
        }
      ],
      "stateMutability": "view",
      "type": "function"
    },
    {
      "inputs": [],
      "name": "LENDING_POOL",
      "outputs": [
        {
          "internalType": "address",
          "name": "",
          "type": "address"
        }
      ],
      "stateMutability": "view",
      "type": "function"
    },
    {
      "inputs": [
        {
          "internalType": "address",
          "name": "reserve",
          "type": "address"
        },
        {
          "internalType": "uint256",
          "name": "amount",
          "type": "uint256"
        },
        {
          "internalType": "uint256",
          "name": "fee",
          "type": "uint256"
        },
        {
          "internalType": "bytes",
          "name": "params",
          "type": "bytes"
        }
      ],
      "name": "executeOperation",
      "outputs": [],
      "stateMutability": "nonpayable",
      "type": "function"
    },
    {
      "inputs": [
        {
          "internalType": "address",
          "name": "reserve",
          "type": "address"
        },
        {
          "internalType": "uint256",
          "name": "amount",
          "type": "uint256"
        }
      ],
      "name": "loan",
      "outputs": [],
      "stateMutability": "nonpayable",
      "type": "function"
    }
  ],
  "bytecode": "0x6080604052733dfd23a6c5e8bbcfc9581d2e864a68feb6a076d3600260006101000a81548173ffffffffffffffffffffffffffffffffffffffff021916908373ffffffffffffffffffffffffffffffffffffffff16021790555034801561006557600080fd5b507324a42fd28c976a61df5d00d0599c34c4f90748c86000806101000a81548173ffffffffffffffffffffffffffffffffffffffff021916908373ffffffffffffffffffffffffffffffffffffffff16021790555060008054906101000a900473ffffffffffffffffffffffffffffffffffffffff16600360006101000a81548173ffffffffffffffffffffffffffffffffffffffff021916908373ffffffffffffffffffffffffffffffffffffffff16021790555073398ec7346dcd622edc5ae82352f02be94c62d119600160006101000a81548173ffffffffffffffffffffffffffffffffffffffff021916908373ffffffffffffffffffffffffffffffffffffffff160217905550600160009054906101000a900473ffffffffffffffffffffffffffffffffffffffff16600460006101000a81548173ffffffffffffffffffffffffffffffffffffffff021916908373ffffffffffffffffffffffffffffffffffffffff160217905550610961806101e26000396000f3fe608060405234801561001057600080fd5b50600436106100575760003560e01c80630542975c1461005c578063185cc7511461007a5780636b6c077414610096578063b4dcfc77146100b4578063ee872558146100d2575b600080fd5b6100646100ee565b604051610071919061065f565b60405180910390f35b610094600480360381019061008f91906104a0565b610112565b005b61009e61028e565b6040516100ab919061065f565b60405180910390f35b6100bc6102b4565b6040516100c9919061065f565b60405180910390f35b6100ec60048036038101906100e791906104e0565b6102da565b005b60008054906101000a900473ffffffffffffffffffffffffffffffffffffffff1681565b60008273ffffffffffffffffffffffffffffffffffffffff166370a08231306040518263ffffffff1660e01b815260040161014d919061065f565b60206040518083038186803b15801561016557600080fd5b505afa158015610179573d6000803e3d6000fd5b505050506040513d601f19601f8201168201806040525081019061019d9190610595565b90508181116101e1576040517f08c379a00000000000000000000000000000000000000000000000000000000081526004016101d8906106ef565b60405180910390fd5b6000604051806020016040528060008152509050600460009054906101000a900473ffffffffffffffffffffffffffffffffffffffff1673ffffffffffffffffffffffffffffffffffffffff16635cffe9de308686856040518563ffffffff1660e01b8152600401610256949392919061067a565b600060405180830381600087803b15801561027057600080fd5b505af1158015610284573d6000803e3d6000fd5b5050505050505050565b600260009054906101000a900473ffffffffffffffffffffffffffffffffffffffff1681565b600160009054906101000a900473ffffffffffffffffffffffffffffffffffffffff1681565b7fdd970dd9b5bfe707922155b058a407655cb18288b807e2216442bca8ad83d6b583604051610309919061070f565b60405180910390a1600061032684866103e090919063ffffffff16565b90508573ffffffffffffffffffffffffffffffffffffffff1663a9059cbb600260009054906101000a900473ffffffffffffffffffffffffffffffffffffffff16836040518363ffffffff1660e01b81526004016103859291906106c6565b602060405180830381600087803b15801561039f57600080fd5b505af11580156103b3573d6000803e3d6000fd5b505050506040513d601f19601f820116820180604052508101906103d79190610568565b50505050505050565b600081836103ee919061076a565b905092915050565b600081359050610405816108e6565b92915050565b60008151905061041a816108fd565b92915050565b60008083601f8401126104365761043561086f565b5b8235905067ffffffffffffffff8111156104535761045261086a565b5b60208301915083600182028301111561046f5761046e610874565b5b9250929050565b60008135905061048581610914565b92915050565b60008151905061049a81610914565b92915050565b600080604083850312156104b7576104b661087e565b5b60006104c5858286016103f6565b92505060206104d685828601610476565b9150509250929050565b6000806000806000608086880312156104fc576104fb61087e565b5b600061050a888289016103f6565b955050602061051b88828901610476565b945050604061052c88828901610476565b935050606086013567ffffffffffffffff81111561054d5761054c610879565b5b61055988828901610420565b92509250509295509295909350565b60006020828403121561057e5761057d61087e565b5b600061058c8482850161040b565b91505092915050565b6000602082840312156105ab576105aa61087e565b5b60006105b98482850161048b565b91505092915050565b6105cb816107c0565b82525050565b60006105dc8261073d565b6105e68185610748565b93506105f6818560208601610808565b6105ff81610883565b840191505092915050565b6000610617600d83610759565b915061062282610894565b602082019050919050565b600061063a600383610759565b9150610645826108bd565b602082019050919050565b610659816107fe565b82525050565b600060208201905061067460008301846105c2565b92915050565b600060808201905061068f60008301876105c2565b61069c60208301866105c2565b6106a96040830185610650565b81810360608301526106bb81846105d1565b905095945050505050565b60006040820190506106db60008301856105c2565b6106e86020830184610650565b9392505050565b600060208201905081810360008301526107088161060a565b9050919050565b600060408201905081810360008301526107288161062d565b90506107376020830184610650565b92915050565b600081519050919050565b600082825260208201905092915050565b600082825260208201905092915050565b6000610775826107fe565b9150610780836107fe565b9250827fffffffffffffffffffffffffffffffffffffffffffffffffffffffffffffffff038211156107b5576107b461083b565b5b828201905092915050565b60006107cb826107de565b9050919050565b60008115159050919050565b600073ffffffffffffffffffffffffffffffffffffffff82169050919050565b6000819050919050565b60005b8381101561082657808201518184015260208101905061080b565b83811115610835576000848401525b50505050565b7f4e487b7100000000000000000000000000000000000000000000000000000000600052601160045260246000fd5b600080fd5b600080fd5b600080fd5b600080fd5b600080fd5b6000601f19601f8301169050919050565b7f62616c203c3d20616d6f756e7400000000000000000000000000000000000000600082015250565b7f6665650000000000000000000000000000000000000000000000000000000000600082015250565b6108ef816107c0565b81146108fa57600080fd5b50565b610906816107d2565b811461091157600080fd5b50565b61091d816107fe565b811461092857600080fd5b5056fea264697066735822122089884477b91e2411960938737b7c381e16971b39fa7619dfa1c0b2dbff331f8764736f6c63430008070033",
  "immutableReferences": {},
  "source": "// SPDX-License-Identifier: MIT\npragma solidity >=0.7.0 <0.9.0;\n\nimport \"@openzeppelin/contracts/utils/math/SafeMath.sol\";\nimport \"@openzeppelin/contracts/token/ERC20/IERC20.sol\";\nimport \"./interfaces/aave/IFlashLoanReceiver.sol\";\nimport \"./interfaces/aave/ILendingPoolAddressProvider.sol\";\nimport \"./interfaces/aave/ILendingPool.sol\";\n\n/**\n    !!!\n    Never keep funds permanently on your flash loan receiver contract as they could be\n    exposed to a 'griefing' attack, where the stored funds are used by an attacker.\n    !!!\n */\ncontract TestAaveFlashLoan is IFlashLoanReceiver {\n  using SafeMath for uint256;\n\n  address public ADDRESSES_PROVIDER;\n  address public LENDING_POOL;\n  address public CORE = 0x3dfd23A6c5E8BbcFc9581d2E864a68feb6a076d3;\n\n  ILendingPoolAddressesProvider private provider;\n  ILendingPool private pool;\n\n  event Log(string message, uint256 val);\n\n  constructor() {\n    ADDRESSES_PROVIDER = 0x24a42fD28C976A61Df5D00D0599C34c4f90748c8;\n    provider = ILendingPoolAddressesProvider(ADDRESSES_PROVIDER);\n\n    // LENDING_POOL = provider.getLendingPool();\n    LENDING_POOL = 0x398eC7346DcD622eDc5ae82352F02bE94C62d119;\n    pool = ILendingPool(LENDING_POOL);\n  }\n\n  /**\n  This function is called after your contract has received the flash loaned amount\n  */\n  function executeOperation(\n    address reserve,\n    uint256 amount,\n    uint256 fee,\n    bytes calldata params\n  ) external override {\n    // This contract now has the funds requested.\n\n    // Your logic goes here.\n    emit Log(\"fee\", fee);\n\n    uint256 amountToRepay = amount.add(fee);\n    IERC20(reserve).transfer(CORE, amountToRepay);\n  }\n\n  function loan(address reserve, uint256 amount) external {\n    // check balance\n    uint256 bal = IERC20(reserve).balanceOf(address(this));\n    require(bal > amount, \"bal <= amount\");\n\n    bytes memory params = \"\";\n\n    pool.flashLoan(address(this), reserve, amount, params);\n  }\n}\n",
  "sourcePath": "/home/dionmars/Desktop/dion/contracts/TestAaveFlashLoan.sol",
  "compiler": {
    "name": "solc",
    "version": "0.8.7+commit.e28d00a7.Emscripten.clang"
  },
  "schemaVersion": "3.4.3",
  "updatedAt": "2021-10-12T15:41:58.866Z",
  "devdoc": {
    "kind": "dev",
    "methods": {},
    "version": 1
  },
  "userdoc": {
    "kind": "user",
    "methods": {
      "executeOperation(address,uint256,uint256,bytes)": {
        "notice": "This function is called after your contract has received the flash loaned amount"
      }
    },
    "notice": "!!! Never keep funds permanently on your flash loan receiver contract as they could be exposed to a 'griefing' attack, where the stored funds are used by an attacker. !!!",
    "version": 1
  }
}