{
  "contractName": "TestUniswap",
  "abi": [
    {
      "inputs": [
        {
          "internalType": "address",
          "name": "_tokenIn",
          "type": "address"
        },
        {
          "internalType": "address",
          "name": "_tokenOut",
          "type": "address"
        },
        {
          "internalType": "uint256",
          "name": "_amountIn",
          "type": "uint256"
        },
        {
          "internalType": "uint256",
          "name": "_amountOutMin",
          "type": "uint256"
        },
        {
          "internalType": "address",
          "name": "_to",
          "type": "address"
        }
      ],
      "name": "swap",
      "outputs": [],
      "stateMutability": "nonpayable",
      "type": "function"
    }
  ],
  "bytecode": "0x608060405234801561001057600080fd5b506108c3806100206000396000f3fe608060405234801561001057600080fd5b506004361061002b5760003560e01c8063d5bcb9b514610030575b600080fd5b61004a60048036038101906100459190610474565b61004c565b005b8473ffffffffffffffffffffffffffffffffffffffff166323b872dd3330866040518463ffffffff1660e01b815260040161008993929190610608565b602060405180830381600087803b1580156100a357600080fd5b505af11580156100b7573d6000803e3d6000fd5b505050506040513d601f19601f820116820180604052508101906100db9190610538565b508473ffffffffffffffffffffffffffffffffffffffff1663095ea7b3737a250d5630b4cf539739df2c5dacb4c659f2488d856040518363ffffffff1660e01b815260040161012b92919061063f565b602060405180830381600087803b15801561014557600080fd5b505af1158015610159573d6000803e3d6000fd5b505050506040513d601f19601f8201168201806040525081019061017d9190610538565b506060600367ffffffffffffffff81111561019b5761019a6107f4565b5b6040519080825280602002602001820160405280156101c95781602001602082028036833780820191505090505b50905085816000815181106101e1576101e06107c5565b5b602002602001019073ffffffffffffffffffffffffffffffffffffffff16908173ffffffffffffffffffffffffffffffffffffffff168152505073c02aaa39b223fe8d0a0e5c4f27ead9083c756cc281600181518110610244576102436107c5565b5b602002602001019073ffffffffffffffffffffffffffffffffffffffff16908173ffffffffffffffffffffffffffffffffffffffff16815250508481600281518110610293576102926107c5565b5b602002602001019073ffffffffffffffffffffffffffffffffffffffff16908173ffffffffffffffffffffffffffffffffffffffff1681525050737a250d5630b4cf539739df2c5dacb4c659f2488d73ffffffffffffffffffffffffffffffffffffffff166338ed173985858486426040518663ffffffff1660e01b8152600401610322959493929190610668565b600060405180830381600087803b15801561033c57600080fd5b505af1158015610350573d6000803e3d6000fd5b505050506040513d6000823e3d601f19601f8201168201806040525081019061037991906104ef565b50505050505050565b6000610395610390846106e7565b6106c2565b905080838252602082019050828560208602820111156103b8576103b7610828565b5b60005b858110156103e857816103ce888261045f565b8452602084019350602083019250506001810190506103bb565b5050509392505050565b60008135905061040181610848565b92915050565b600082601f83011261041c5761041b610823565b5b815161042c848260208601610382565b91505092915050565b6000815190506104448161085f565b92915050565b60008135905061045981610876565b92915050565b60008151905061046e81610876565b92915050565b600080600080600060a086880312156104905761048f610832565b5b600061049e888289016103f2565b95505060206104af888289016103f2565b94505060406104c08882890161044a565b93505060606104d18882890161044a565b92505060806104e2888289016103f2565b9150509295509295909350565b60006020828403121561050557610504610832565b5b600082015167ffffffffffffffff8111156105235761052261082d565b5b61052f84828501610407565b91505092915050565b60006020828403121561054e5761054d610832565b5b600061055c84828501610435565b91505092915050565b6000610571838361057d565b60208301905092915050565b6105868161074c565b82525050565b6105958161074c565b82525050565b60006105a682610723565b6105b0818561073b565b93506105bb83610713565b8060005b838110156105ec5781516105d38882610565565b97506105de8361072e565b9250506001810190506105bf565b5085935050505092915050565b6106028161078a565b82525050565b600060608201905061061d600083018661058c565b61062a602083018561058c565b61063760408301846105f9565b949350505050565b6000604082019050610654600083018561058c565b61066160208301846105f9565b9392505050565b600060a08201905061067d60008301886105f9565b61068a60208301876105f9565b818103604083015261069c818661059b565b90506106ab606083018561058c565b6106b860808301846105f9565b9695505050505050565b60006106cc6106dd565b90506106d88282610794565b919050565b6000604051905090565b600067ffffffffffffffff821115610702576107016107f4565b5b602082029050602081019050919050565b6000819050602082019050919050565b600081519050919050565b6000602082019050919050565b600082825260208201905092915050565b60006107578261076a565b9050919050565b60008115159050919050565b600073ffffffffffffffffffffffffffffffffffffffff82169050919050565b6000819050919050565b61079d82610837565b810181811067ffffffffffffffff821117156107bc576107bb6107f4565b5b80604052505050565b7f4e487b7100000000000000000000000000000000000000000000000000000000600052603260045260246000fd5b7f4e487b7100000000000000000000000000000000000000000000000000000000600052604160045260246000fd5b600080fd5b600080fd5b600080fd5b600080fd5b6000601f19601f8301169050919050565b6108518161074c565b811461085c57600080fd5b50565b6108688161075e565b811461087357600080fd5b50565b61087f8161078a565b811461088a57600080fd5b5056fea2646970667358221220fd405e2a6efba145e6a60c64439d1138d2995cfb28e78246627cb9321b522b3364736f6c63430008070033",
  "immutableReferences": {},
  "source": "// SPDX-License-Identifier: MIT\npragma solidity >=0.7.0 <0.9.0;\n\nimport \"./interfaces/IERC20.sol\";\nimport \"./interfaces/Uniswap.sol\";\n\ncontract TestUniswap {\n  address private constant UNISWAP_V2_ROUTER =\n    0x7a250d5630B4cF539739dF2C5dAcb4c659F2488D;\n  address private constant WETH = 0xC02aaA39b223FE8D0A0e5C4F27eAD9083C756Cc2;\n\n  function swap(\n    address _tokenIn,\n    address _tokenOut,\n    uint256 _amountIn,\n    uint256 _amountOutMin,\n    address _to\n  ) external {\n    IERC20(_tokenIn).transferFrom(msg.sender, address(this), _amountIn);\n    IERC20(_tokenIn).approve(UNISWAP_V2_ROUTER, _amountIn);\n\n    address[] memory path;\n      path = new address[](3);\n      path[0] = _tokenIn;\n      path[1] = WETH;\n      path[2] = _tokenOut;\n    \n\n    IUniswapV2Router(UNISWAP_V2_ROUTER).swapExactTokensForTokens(\n      _amountIn,\n      _amountOutMin,\n      path,\n      _to,\n      block.timestamp\n    );\n  }\n\n}\n",
  "sourcePath": "/home/dionmars/Desktop/dion/contracts/TestUniswap.sol",
  "compiler": {
    "name": "solc",
    "version": "0.8.7+commit.e28d00a7.Emscripten.clang"
  },
  "schemaVersion": "3.4.3",
  "updatedAt": "2021-10-23T17:57:03.393Z",
  "devdoc": {
    "kind": "dev",
    "methods": {},
    "version": 1
  },
  "userdoc": {
    "kind": "user",
    "methods": {},
    "version": 1
  }
}