{
  "contractName": "TestWethFlashMint",
  "abi": [
    {
      "anonymous": false,
      "inputs": [
        {
          "indexed": false,
          "internalType": "string",
          "name": "name",
          "type": "string"
        },
        {
          "indexed": false,
          "internalType": "uint256",
          "name": "val",
          "type": "uint256"
        }
      ],
      "name": "Log",
      "type": "event"
    },
    {
      "inputs": [],
      "name": "CALLBACK_SUCCESS",
      "outputs": [
        {
          "internalType": "bytes32",
          "name": "",
          "type": "bytes32"
        }
      ],
      "stateMutability": "view",
      "type": "function"
    },
    {
      "inputs": [],
      "name": "flash",
      "outputs": [],
      "stateMutability": "nonpayable",
      "type": "function"
    },
    {
      "inputs": [
        {
          "internalType": "address",
          "name": "sender",
          "type": "address"
        },
        {
          "internalType": "address",
          "name": "token",
          "type": "address"
        },
        {
          "internalType": "uint256",
          "name": "amount",
          "type": "uint256"
        },
        {
          "internalType": "uint256",
          "name": "fee",
          "type": "uint256"
        },
        {
          "internalType": "bytes",
          "name": "data",
          "type": "bytes"
        }
      ],
      "name": "onFlashLoan",
      "outputs": [
        {
          "internalType": "bytes32",
          "name": "",
          "type": "bytes32"
        }
      ],
      "stateMutability": "nonpayable",
      "type": "function"
    }
  ],
  "bytecode": "0x60a060405273f4bb2e28688e89fcce3c0580d37d36a7672e8a9f6000806101000a81548173ffffffffffffffffffffffffffffffffffffffff021916908373ffffffffffffffffffffffffffffffffffffffff1602179055507f439148f0bbc682ca079e46d6e2c2f0c1e3b820f1a291b069d8882abf8cf18dd960809081525034801561008b57600080fd5b5060805161079f6100ae6000396000818161018501526101b3015261079f6000f3fe608060405234801561001057600080fd5b50600436106100415760003560e01c806323e30c8b146100465780638237e53814610076578063d336c82d14610094575b600080fd5b610060600480360381019061005b919061042d565b61009e565b60405161006d9190610622565b60405180910390f35b61007e6101b1565b60405161008b9190610622565b60405180910390f35b61009c6101d5565b005b60008060008054906101000a900473ffffffffffffffffffffffffffffffffffffffff1673ffffffffffffffffffffffffffffffffffffffff166370a08231306040518263ffffffff1660e01b81526004016100fa9190610594565b60206040518083038186803b15801561011257600080fd5b505afa158015610126573d6000803e3d6000fd5b505050506040513d601f19601f8201168201806040525081019061014a91906104f4565b90507fdd970dd9b5bfe707922155b058a407655cb18288b807e2216442bca8ad83d6b58160405161017b919061063d565b60405180910390a17f00000000000000000000000000000000000000000000000000000000000000009150509695505050505050565b7f000000000000000000000000000000000000000000000000000000000000000081565b6000670de0b6b3a7640000905060008054906101000a900473ffffffffffffffffffffffffffffffffffffffff1673ffffffffffffffffffffffffffffffffffffffff1663095ea7b360008054906101000a900473ffffffffffffffffffffffffffffffffffffffff16836040518363ffffffff1660e01b815260040161025d9291906105f9565b602060405180830381600087803b15801561027757600080fd5b505af115801561028b573d6000803e3d6000fd5b505050506040513d601f19601f820116820180604052508101906102af91906104c7565b5060008054906101000a900473ffffffffffffffffffffffffffffffffffffffff1673ffffffffffffffffffffffffffffffffffffffff16635cffe9de3060008054906101000a900473ffffffffffffffffffffffffffffffffffffffff16846040518463ffffffff1660e01b815260040161032d939291906105af565b602060405180830381600087803b15801561034757600080fd5b505af115801561035b573d6000803e3d6000fd5b505050506040513d601f19601f8201168201806040525081019061037f91906104c7565b5050565b60008135905061039281610724565b92915050565b6000815190506103a78161073b565b92915050565b60008083601f8401126103c3576103c26106e4565b5b8235905067ffffffffffffffff8111156103e0576103df6106df565b5b6020830191508360018202830111156103fc576103fb6106e9565b5b9250929050565b60008135905061041281610752565b92915050565b60008151905061042781610752565b92915050565b60008060008060008060a0878903121561044a576104496106f3565b5b600061045889828a01610383565b965050602061046989828a01610383565b955050604061047a89828a01610403565b945050606061048b89828a01610403565b935050608087013567ffffffffffffffff8111156104ac576104ab6106ee565b5b6104b889828a016103ad565b92509250509295509295509295565b6000602082840312156104dd576104dc6106f3565b5b60006104eb84828501610398565b91505092915050565b60006020828403121561050a576105096106f3565b5b600061051884828501610418565b91505092915050565b61052a8161068d565b82525050565b610539816106ab565b82525050565b600061054c60008361066b565b9150610557826106f8565b600082019050919050565b600061056f60078361067c565b915061057a826106fb565b602082019050919050565b61058e816106d5565b82525050565b60006020820190506105a96000830184610521565b92915050565b60006080820190506105c46000830186610521565b6105d16020830185610521565b6105de6040830184610585565b81810360608301526105ef8161053f565b9050949350505050565b600060408201905061060e6000830185610521565b61061b6020830184610585565b9392505050565b60006020820190506106376000830184610530565b92915050565b6000604082019050818103600083015261065681610562565b90506106656020830184610585565b92915050565b600082825260208201905092915050565b600082825260208201905092915050565b6000610698826106b5565b9050919050565b60008115159050919050565b6000819050919050565b600073ffffffffffffffffffffffffffffffffffffffff82169050919050565b6000819050919050565b600080fd5b600080fd5b600080fd5b600080fd5b600080fd5b50565b7f62616c616e636500000000000000000000000000000000000000000000000000600082015250565b61072d8161068d565b811461073857600080fd5b50565b6107448161069f565b811461074f57600080fd5b50565b61075b816106d5565b811461076657600080fd5b5056fea2646970667358221220de067d32e6925682a28325114030806a52fc57a097f41dd53008835792dbf20a64736f6c63430008070033",
  "immutableReferences": {
    "1830": [
      {
        "length": 32,
        "start": 389
      },
      {
        "length": 32,
        "start": 435
      }
    ]
  },
  "source": "// SPDX-License-Identifier: MIT\npragma solidity >=0.7.0 <0.9.0;\n\nimport \"./interfaces/WETH10.sol\";\nimport \"@openzeppelin/contracts/token/ERC20/IERC20.sol\";\n\ncontract TestWethFlashMint {\n  address private WETH = 0xf4BB2e28688e89fCcE3c0580D37d36A7672E8A9F;\n  bytes32 public immutable CALLBACK_SUCCESS =\n    keccak256(\"ERC3156FlashBorrower.onFlashLoan\");\n\n  event Log(string name, uint256 val);\n\n  function flash() external {\n    uint256 amount = 10**18;\n    IERC20(WETH).approve(WETH, amount);\n    WETH10(WETH).flashLoan(address(this), WETH, amount, \"\");\n  }\n\n  // called by WETH10\n  function onFlashLoan(\n    address sender,\n    address token,\n    uint256 amount,\n    uint256 fee,\n    bytes calldata data\n  ) external returns (bytes32) {\n    uint256 bal = IERC20(WETH).balanceOf(address(this));\n    emit Log(\"balance\", bal);\n\n    return CALLBACK_SUCCESS;\n  }\n}\n",
  "sourcePath": "/home/dionmars/Desktop/dion/contracts/TestWethFlashMint.sol",
  "compiler": {
    "name": "solc",
    "version": "0.8.7+commit.e28d00a7.Emscripten.clang"
  },
  "schemaVersion": "3.4.3",
  "updatedAt": "2021-10-12T15:39:10.607Z",
  "devdoc": {
    "kind": "dev",
    "methods": {},
    "version": 1
  },
  "userdoc": {
    "kind": "user",
    "methods": {},
    "version": 1
  }
}