{
  "contractName": "TestFlashSwap",
  "abi": [
    {
      "anonymous": false,
      "inputs": [
        {
          "indexed": false,
          "internalType": "string",
          "name": "message",
          "type": "string"
        },
        {
          "indexed": false,
          "internalType": "uint256",
          "name": "val",
          "type": "uint256"
        }
      ],
      "name": "Log",
      "type": "event"
    },
    {
      "inputs": [
        {
          "internalType": "address",
          "name": "_tokenBorrow",
          "type": "address"
        },
        {
          "internalType": "uint256",
          "name": "_amount",
          "type": "uint256"
        }
      ],
      "name": "flashLoan",
      "outputs": [],
      "stateMutability": "nonpayable",
      "type": "function"
    },
    {
      "inputs": [
        {
          "internalType": "address",
          "name": "_sender",
          "type": "address"
        },
        {
          "internalType": "uint256",
          "name": "_amount0",
          "type": "uint256"
        },
        {
          "internalType": "uint256",
          "name": "_amount1",
          "type": "uint256"
        },
        {
          "internalType": "bytes",
          "name": "_data",
          "type": "bytes"
        }
      ],
      "name": "uniswapV2Call",
      "outputs": [],
      "stateMutability": "nonpayable",
      "type": "function"
    }
  ],
  "bytecode": "0x608060405234801561001057600080fd5b50611146806100206000396000f3fe608060405234801561001057600080fd5b50600436106100365760003560e01c806310d1e85c1461003b5780639d9e465c14610057575b600080fd5b610055600480360381019061005091906109ad565b610073565b005b610071600480360381019061006c919061096d565b6104f5565b005b60003373ffffffffffffffffffffffffffffffffffffffff16630dfe16816040518163ffffffff1660e01b815260040160206040518083038186803b1580156100bb57600080fd5b505afa1580156100cf573d6000803e3d6000fd5b505050506040513d601f19601f820116820180604052508101906100f39190610900565b905060003373ffffffffffffffffffffffffffffffffffffffff1663d21220a76040518163ffffffff1660e01b815260040160206040518083038186803b15801561013d57600080fd5b505afa158015610151573d6000803e3d6000fd5b505050506040513d601f19601f820116820180604052508101906101759190610900565b90506000735c69bee701ef814a2b6a3edd4b1652cb9cc5aa6f73ffffffffffffffffffffffffffffffffffffffff1663e6a4390584846040518363ffffffff1660e01b81526004016101c8929190610bae565b60206040518083038186803b1580156101e057600080fd5b505afa1580156101f4573d6000803e3d6000fd5b505050506040513d601f19601f820116820180604052508101906102189190610900565b90508073ffffffffffffffffffffffffffffffffffffffff163373ffffffffffffffffffffffffffffffffffffffff1614610288576040517f08c379a000000000000000000000000000000000000000000000000000000000815260040161027f90610c00565b60405180910390fd5b3073ffffffffffffffffffffffffffffffffffffffff168873ffffffffffffffffffffffffffffffffffffffff16146102f6576040517f08c379a00000000000000000000000000000000000000000000000000000000081526004016102ed90610cd8565b60405180910390fd5b6000808686810190610308919061092d565b91509150600060016103e56003846103209190610e26565b61032a9190610df5565b6103349190610d9f565b9050600081836103449190610d9f565b90507fdd970dd9b5bfe707922155b058a407655cb18288b807e2216442bca8ad83d6b5836040516103759190610c7c565b60405180910390a17fdd970dd9b5bfe707922155b058a407655cb18288b807e2216442bca8ad83d6b58b6040516103ac9190610cf8565b60405180910390a17fdd970dd9b5bfe707922155b058a407655cb18288b807e2216442bca8ad83d6b58a6040516103e39190610caa565b60405180910390a17fdd970dd9b5bfe707922155b058a407655cb18288b807e2216442bca8ad83d6b58260405161041a9190610c20565b60405180910390a17fdd970dd9b5bfe707922155b058a407655cb18288b807e2216442bca8ad83d6b5816040516104519190610c4e565b60405180910390a18373ffffffffffffffffffffffffffffffffffffffff1663a9059cbb86836040518363ffffffff1660e01b8152600401610494929190610bd7565b602060405180830381600087803b1580156104ae57600080fd5b505af11580156104c2573d6000803e3d6000fd5b505050506040513d601f19601f820116820180604052508101906104e69190610a35565b50505050505050505050505050565b6000735c69bee701ef814a2b6a3edd4b1652cb9cc5aa6f73ffffffffffffffffffffffffffffffffffffffff1663e6a439058473c02aaa39b223fe8d0a0e5c4f27ead9083c756cc26040518363ffffffff1660e01b815260040161055a929190610bae565b60206040518083038186803b15801561057257600080fd5b505afa158015610586573d6000803e3d6000fd5b505050506040513d601f19601f820116820180604052508101906105aa9190610900565b9050600073ffffffffffffffffffffffffffffffffffffffff168173ffffffffffffffffffffffffffffffffffffffff16141561061c576040517f08c379a000000000000000000000000000000000000000000000000000000000815260040161061390610c00565b60405180910390fd5b60008173ffffffffffffffffffffffffffffffffffffffff16630dfe16816040518163ffffffff1660e01b815260040160206040518083038186803b15801561066457600080fd5b505afa158015610678573d6000803e3d6000fd5b505050506040513d601f19601f8201168201806040525081019061069c9190610900565b905060008273ffffffffffffffffffffffffffffffffffffffff1663d21220a76040518163ffffffff1660e01b815260040160206040518083038186803b1580156106e657600080fd5b505afa1580156106fa573d6000803e3d6000fd5b505050506040513d601f19601f8201168201806040525081019061071e9190610900565b905060008273ffffffffffffffffffffffffffffffffffffffff168673ffffffffffffffffffffffffffffffffffffffff161461075c57600061075e565b845b905060008273ffffffffffffffffffffffffffffffffffffffff168773ffffffffffffffffffffffffffffffffffffffff161461079c57600061079e565b855b9050600087876040516020016107b5929190610bd7565b60405160208183030381529060405290508573ffffffffffffffffffffffffffffffffffffffff1663022c0d9f848430856040518563ffffffff1660e01b81526004016108059493929190610d26565b600060405180830381600087803b15801561081f57600080fd5b505af1158015610833573d6000803e3d6000fd5b505050505050505050505050565b600081359050610850816110b4565b92915050565b600081519050610865816110b4565b92915050565b60008135905061087a816110cb565b92915050565b60008151905061088f816110e2565b92915050565b60008083601f8401126108ab576108aa610f70565b5b8235905067ffffffffffffffff8111156108c8576108c7610f6b565b5b6020830191508360018202830111156108e4576108e3610f75565b5b9250929050565b6000813590506108fa816110f9565b92915050565b60006020828403121561091657610915610f7f565b5b600061092484828501610856565b91505092915050565b6000806040838503121561094457610943610f7f565b5b60006109528582860161086b565b9250506020610963858286016108eb565b9150509250929050565b6000806040838503121561098457610983610f7f565b5b600061099285828601610841565b92505060206109a3858286016108eb565b9150509250929050565b6000806000806000608086880312156109c9576109c8610f7f565b5b60006109d788828901610841565b95505060206109e8888289016108eb565b94505060406109f9888289016108eb565b935050606086013567ffffffffffffffff811115610a1a57610a19610f7a565b5b610a2688828901610895565b92509250509295509295909350565b600060208284031215610a4b57610a4a610f7f565b5b6000610a5984828501610880565b91505092915050565b610a6b81610e80565b82525050565b6000610a7c82610d72565b610a868185610d7d565b9350610a96818560208601610eda565b610a9f81610f84565b840191505092915050565b6000610ab7600583610d8e565b9150610ac282610f95565b602082019050919050565b6000610ada600383610d8e565b9150610ae582610fbe565b602082019050919050565b6000610afd600f83610d8e565b9150610b0882610fe7565b602082019050919050565b6000610b20600683610d8e565b9150610b2b82611010565b602082019050919050565b6000610b43600783610d8e565b9150610b4e82611039565b602082019050919050565b6000610b66600783610d8e565b9150610b7182611062565b602082019050919050565b6000610b89600783610d8e565b9150610b948261108b565b602082019050919050565b610ba881610ed0565b82525050565b6000604082019050610bc36000830185610a62565b610bd06020830184610a62565b9392505050565b6000604082019050610bec6000830185610a62565b610bf96020830184610b9f565b9392505050565b60006020820190508181036000830152610c1981610aaa565b9050919050565b60006040820190508181036000830152610c3981610acd565b9050610c486020830184610b9f565b92915050565b60006040820190508181036000830152610c6781610af0565b9050610c766020830184610b9f565b92915050565b60006040820190508181036000830152610c9581610b13565b9050610ca46020830184610b9f565b92915050565b60006040820190508181036000830152610cc381610b36565b9050610cd26020830184610b9f565b92915050565b60006020820190508181036000830152610cf181610b59565b9050919050565b60006040820190508181036000830152610d1181610b7c565b9050610d206020830184610b9f565b92915050565b6000608082019050610d3b6000830187610b9f565b610d486020830186610b9f565b610d556040830185610a62565b8181036060830152610d678184610a71565b905095945050505050565b600081519050919050565b600082825260208201905092915050565b600082825260208201905092915050565b6000610daa82610ed0565b9150610db583610ed0565b9250827fffffffffffffffffffffffffffffffffffffffffffffffffffffffffffffffff03821115610dea57610de9610f0d565b5b828201905092915050565b6000610e0082610ed0565b9150610e0b83610ed0565b925082610e1b57610e1a610f3c565b5b828204905092915050565b6000610e3182610ed0565b9150610e3c83610ed0565b9250817fffffffffffffffffffffffffffffffffffffffffffffffffffffffffffffffff0483118215151615610e7557610e74610f0d565b5b828202905092915050565b6000610e8b82610eb0565b9050919050565b6000610e9d82610eb0565b9050919050565b60008115159050919050565b600073ffffffffffffffffffffffffffffffffffffffff82169050919050565b6000819050919050565b60005b83811015610ef8578082015181840152602081019050610edd565b83811115610f07576000848401525b50505050565b7f4e487b7100000000000000000000000000000000000000000000000000000000600052601160045260246000fd5b7f4e487b7100000000000000000000000000000000000000000000000000000000600052601260045260246000fd5b600080fd5b600080fd5b600080fd5b600080fd5b600080fd5b6000601f19601f8301169050919050565b7f2170616972000000000000000000000000000000000000000000000000000000600082015250565b7f6665650000000000000000000000000000000000000000000000000000000000600082015250565b7f616d6f756e7420746f2072657061790000000000000000000000000000000000600082015250565b7f616d6f756e740000000000000000000000000000000000000000000000000000600082015250565b7f616d6f756e743100000000000000000000000000000000000000000000000000600082015250565b7f2173656e64657200000000000000000000000000000000000000000000000000600082015250565b7f616d6f756e743000000000000000000000000000000000000000000000000000600082015250565b6110bd81610e80565b81146110c857600080fd5b50565b6110d481610e92565b81146110df57600080fd5b50565b6110eb81610ea4565b81146110f657600080fd5b50565b61110281610ed0565b811461110d57600080fd5b5056fea26469706673582212209c2a2942fb361d7811727d55082437eab635954318b968ac228cfe62063a244e64736f6c63430008070033",
  "immutableReferences": {},
  "source": "// SPDX-License-Identifier: MIT\npragma solidity >=0.7.0 <0.9.0;\n\nimport \"@openzeppelin/contracts/token/ERC20/IERC20.sol\";\nimport \"./interfaces/Uniswap.sol\";\n\ninterface IUniswapV2Callee {\n  function uniswapV2Call(\n    address sender,\n    uint256 amount0,\n    uint256 amount1,\n    bytes calldata data\n  ) external;\n}\n\ncontract TestFlashSwap is IUniswapV2Callee {\n  address private constant WETH = 0xC02aaA39b223FE8D0A0e5C4F27eAD9083C756Cc2;\n  address private constant FACTORY = 0x5C69bEe701ef814a2B6a3EDD4B1652CB9cc5aA6f;\n\n  event Log(string message, uint256 val);\n\n  function flashLoan(address _tokenBorrow, uint256 _amount) external {\n    address pair = IUniswapV2Factory(FACTORY).getPair(_tokenBorrow, WETH);\n    require(pair != address(0), \"!pair\");\n\n    address token0 = IUniswapV2Pair(pair).token0();\n    address token1 = IUniswapV2Pair(pair).token1();\n    uint256 amount0Out = _tokenBorrow == token0 ? _amount : 0;\n    uint256 amount1Out = _tokenBorrow == token1 ? _amount : 0;\n\n    // need to pass some data to trigger uniswapV2Call\n    bytes memory data = abi.encode(_tokenBorrow, _amount);\n\n    IUniswapV2Pair(pair).swap(amount0Out, amount1Out, address(this), data);\n  }\n\n  // called by PAIR\n  function uniswapV2Call(\n    address _sender,\n    uint256 _amount0,\n    uint256 _amount1,\n    bytes calldata _data\n  ) external override {\n    address token0 = IUniswapV2Pair(msg.sender).token0();\n    address token1 = IUniswapV2Pair(msg.sender).token1();\n    address pair = IUniswapV2Factory(FACTORY).getPair(token0, token1);\n    require(msg.sender == pair, \"!pair\");\n    require(_sender == address(this), \"!sender\");\n\n    (address tokenBorrow, uint256 amount) =\n      abi.decode(_data, (address, uint256));\n\n    uint256 fee = ((amount * 3) / 997) + 1;\n    uint256 amountToRepay = amount + fee;\n\n    // do stuff here\n    emit Log(\"amount\", amount);\n    emit Log(\"amount0\", _amount0);\n    emit Log(\"amount1\", _amount1);\n    emit Log(\"fee\", fee);\n    emit Log(\"amount to repay\", amountToRepay);\n\n    IERC20(tokenBorrow).transfer(pair, amountToRepay);\n  }\n}\n",
  "sourcePath": "/home/dionmars/Desktop/dion/contracts/TestFlashSwap.sol",
  "compiler": {
    "name": "solc",
    "version": "0.8.7+commit.e28d00a7.Emscripten.clang"
  },
  "schemaVersion": "3.4.3",
  "updatedAt": "2021-10-23T17:57:03.345Z",
  "devdoc": {
    "kind": "dev",
    "methods": {},
    "version": 1
  },
  "userdoc": {
    "kind": "user",
    "methods": {},
    "version": 1
  }
}