{
  "contractName": "TestUniswapOptimal",
  "abi": [
    {
      "inputs": [
        {
          "internalType": "uint256",
          "name": "r",
          "type": "uint256"
        },
        {
          "internalType": "uint256",
          "name": "a",
          "type": "uint256"
        }
      ],
      "name": "getSwapAmount",
      "outputs": [
        {
          "internalType": "uint256",
          "name": "",
          "type": "uint256"
        }
      ],
      "stateMutability": "pure",
      "type": "function"
    },
    {
      "inputs": [
        {
          "internalType": "address",
          "name": "_tokenA",
          "type": "address"
        },
        {
          "internalType": "address",
          "name": "_tokenB",
          "type": "address"
        },
        {
          "internalType": "uint256",
          "name": "_amountA",
          "type": "uint256"
        }
      ],
      "name": "zap",
      "outputs": [],
      "stateMutability": "nonpayable",
      "type": "function"
    },
    {
      "inputs": [
        {
          "internalType": "address",
          "name": "_tokenA",
          "type": "address"
        },
        {
          "internalType": "address",
          "name": "_tokenB",
          "type": "address"
        },
        {
          "internalType": "uint256",
          "name": "_amountA",
          "type": "uint256"
        }
      ],
      "name": "subOptimalZap",
      "outputs": [],
      "stateMutability": "nonpayable",
      "type": "function"
    },
    {
      "inputs": [
        {
          "internalType": "address",
          "name": "_tokenA",
          "type": "address"
        },
        {
          "internalType": "address",
          "name": "_tokenB",
          "type": "address"
        }
      ],
      "name": "getPair",
      "outputs": [
        {
          "internalType": "address",
          "name": "",
          "type": "address"
        }
      ],
      "stateMutability": "view",
      "type": "function"
    }
  ],
  "bytecode": "0x608060405234801561001057600080fd5b5061170e806100206000396000f3fe608060405234801561001057600080fd5b506004361061004c5760003560e01c8063368519f31461005157806347ce3e6914610081578063750971241461009d578063e6a43905146100b9575b600080fd5b61006b60048036038101906100669190610fb6565b6100e9565b604051610078919061126f565b60405180910390f35b61009b60048036038101906100969190610e6d565b610176565b005b6100b760048036038101906100b29190610e6d565b61050a565b005b6100d360048036038101906100ce9190610e2d565b6105c7565b6040516100e0919061112d565b60405180910390f35b60006107ca6101646101066107cd8661067090919063ffffffff16565b610156610151610122623cda208861067090919063ffffffff16565b610138623cda298a61067090919063ffffffff16565b610142919061137f565b8861067090919063ffffffff16565b610686565b61070090919063ffffffff16565b61016e91906113d5565b905092915050565b73c02aaa39b223fe8d0a0e5c4f27ead9083c756cc273ffffffffffffffffffffffffffffffffffffffff168373ffffffffffffffffffffffffffffffffffffffff161480610203575073c02aaa39b223fe8d0a0e5c4f27ead9083c756cc273ffffffffffffffffffffffffffffffffffffffff168273ffffffffffffffffffffffffffffffffffffffff16145b610242576040517f08c379a00000000000000000000000000000000000000000000000000000000081526004016102399061124f565b60405180910390fd5b8273ffffffffffffffffffffffffffffffffffffffff166323b872dd3330846040518463ffffffff1660e01b815260040161027f93929190611171565b602060405180830381600087803b15801561029957600080fd5b505af11580156102ad573d6000803e3d6000fd5b505050506040513d601f19601f820116820180604052508101906102d19190610f09565b506000735c69bee701ef814a2b6a3edd4b1652cb9cc5aa6f73ffffffffffffffffffffffffffffffffffffffff1663e6a4390585856040518363ffffffff1660e01b8152600401610323929190611148565b60206040518083038186803b15801561033b57600080fd5b505afa15801561034f573d6000803e3d6000fd5b505050506040513d601f19601f820116820180604052508101906103739190610e00565b90506000808273ffffffffffffffffffffffffffffffffffffffff16630902f1ac6040518163ffffffff1660e01b815260040160606040518083038186803b1580156103be57600080fd5b505afa1580156103d2573d6000803e3d6000fd5b505050506040513d601f19601f820116820180604052508101906103f69190610f36565b506dffffffffffffffffffffffffffff1691506dffffffffffffffffffffffffffff16915060008673ffffffffffffffffffffffffffffffffffffffff168473ffffffffffffffffffffffffffffffffffffffff16630dfe16816040518163ffffffff1660e01b815260040160206040518083038186803b15801561047a57600080fd5b505afa15801561048e573d6000803e3d6000fd5b505050506040513d601f19601f820116820180604052508101906104b29190610e00565b73ffffffffffffffffffffffffffffffffffffffff1614156104df576104d883866100e9565b90506104ec565b6104e982866100e9565b90505b6104f7878783610716565b61050187876109a4565b50505050505050565b8273ffffffffffffffffffffffffffffffffffffffff166323b872dd3330846040518463ffffffff1660e01b815260040161054793929190611171565b602060405180830381600087803b15801561056157600080fd5b505af1158015610575573d6000803e3d6000fd5b505050506040513d601f19601f820116820180604052508101906105999190610f09565b506105b883836105b3600285610cb990919063ffffffff16565b610716565b6105c283836109a4565b505050565b6000735c69bee701ef814a2b6a3edd4b1652cb9cc5aa6f73ffffffffffffffffffffffffffffffffffffffff1663e6a4390584846040518363ffffffff1660e01b8152600401610618929190611148565b60206040518083038186803b15801561063057600080fd5b505afa158015610644573d6000803e3d6000fd5b505050506040513d601f19601f820116820180604052508101906106689190610e00565b905092915050565b6000818361067e9190611406565b905092915050565b600060038211156106ed57819050600060016002846106a591906113d5565b6106af919061137f565b90505b818110156106e75780915060028182856106cc91906113d5565b6106d6919061137f565b6106e091906113d5565b90506106b2565b506106fb565b600082146106fa57600190505b5b919050565b6000818361070e9190611460565b905092915050565b8273ffffffffffffffffffffffffffffffffffffffff1663095ea7b3737a250d5630b4cf539739df2c5dacb4c659f2488d836040518363ffffffff1660e01b8152600401610765929190611226565b602060405180830381600087803b15801561077f57600080fd5b505af1158015610793573d6000803e3d6000fd5b505050506040513d601f19601f820116820180604052508101906107b79190610f09565b506000600267ffffffffffffffff8111156107d5576107d46115e8565b5b6040519080825280602002602001820160405280156108035781602001602082028036833780820191505090505b509050600267ffffffffffffffff811115610821576108206115e8565b5b60405190808252806020026020018201604052801561084f5781602001602082028036833780820191505090505b5090508381600081518110610867576108666115b9565b5b602002602001019073ffffffffffffffffffffffffffffffffffffffff16908173ffffffffffffffffffffffffffffffffffffffff168152505082816001815181106108b6576108b56115b9565b5b602002602001019073ffffffffffffffffffffffffffffffffffffffff16908173ffffffffffffffffffffffffffffffffffffffff1681525050737a250d5630b4cf539739df2c5dacb4c659f2488d73ffffffffffffffffffffffffffffffffffffffff166338ed17398360018430426040518663ffffffff1660e01b815260040161094695949392919061128a565b600060405180830381600087803b15801561096057600080fd5b505af1158015610974573d6000803e3d6000fd5b505050506040513d6000823e3d601f19601f8201168201806040525081019061099d9190610ec0565b5050505050565b60008273ffffffffffffffffffffffffffffffffffffffff166370a08231306040518263ffffffff1660e01b81526004016109df919061112d565b60206040518083038186803b1580156109f757600080fd5b505afa158015610a0b573d6000803e3d6000fd5b505050506040513d601f19601f82011682018060405250810190610a2f9190610f89565b905060008273ffffffffffffffffffffffffffffffffffffffff166370a08231306040518263ffffffff1660e01b8152600401610a6c919061112d565b60206040518083038186803b158015610a8457600080fd5b505afa158015610a98573d6000803e3d6000fd5b505050506040513d601f19601f82011682018060405250810190610abc9190610f89565b90508373ffffffffffffffffffffffffffffffffffffffff1663095ea7b3737a250d5630b4cf539739df2c5dacb4c659f2488d846040518363ffffffff1660e01b8152600401610b0d929190611226565b602060405180830381600087803b158015610b2757600080fd5b505af1158015610b3b573d6000803e3d6000fd5b505050506040513d601f19601f82011682018060405250810190610b5f9190610f09565b508273ffffffffffffffffffffffffffffffffffffffff1663095ea7b3737a250d5630b4cf539739df2c5dacb4c659f2488d836040518363ffffffff1660e01b8152600401610baf929190611226565b602060405180830381600087803b158015610bc957600080fd5b505af1158015610bdd573d6000803e3d6000fd5b505050506040513d601f19601f82011682018060405250810190610c019190610f09565b50737a250d5630b4cf539739df2c5dacb4c659f2488d73ffffffffffffffffffffffffffffffffffffffff1663e8e337008585858560008030426040518963ffffffff1660e01b8152600401610c5e9897969594939291906111a8565b606060405180830381600087803b158015610c7857600080fd5b505af1158015610c8c573d6000803e3d6000fd5b505050506040513d601f19601f82011682018060405250810190610cb09190610ff6565b50505050505050565b60008183610cc791906113d5565b905092915050565b6000610ce2610cdd84611309565b6112e4565b90508083825260208201905082856020860282011115610d0557610d0461161c565b5b60005b85811015610d355781610d1b8882610dd6565b845260208401935060208301925050600181019050610d08565b5050509392505050565b600081359050610d4e81611665565b92915050565b600081519050610d6381611665565b92915050565b600082601f830112610d7e57610d7d611617565b5b8151610d8e848260208601610ccf565b91505092915050565b600081519050610da68161167c565b92915050565b600081519050610dbb81611693565b92915050565b600081359050610dd0816116aa565b92915050565b600081519050610de5816116aa565b92915050565b600081519050610dfa816116c1565b92915050565b600060208284031215610e1657610e15611626565b5b6000610e2484828501610d54565b91505092915050565b60008060408385031215610e4457610e43611626565b5b6000610e5285828601610d3f565b9250506020610e6385828601610d3f565b9150509250929050565b600080600060608486031215610e8657610e85611626565b5b6000610e9486828701610d3f565b9350506020610ea586828701610d3f565b9250506040610eb686828701610dc1565b9150509250925092565b600060208284031215610ed657610ed5611626565b5b600082015167ffffffffffffffff811115610ef457610ef3611621565b5b610f0084828501610d69565b91505092915050565b600060208284031215610f1f57610f1e611626565b5b6000610f2d84828501610d97565b91505092915050565b600080600060608486031215610f4f57610f4e611626565b5b6000610f5d86828701610dac565b9350506020610f6e86828701610dac565b9250506040610f7f86828701610deb565b9150509250925092565b600060208284031215610f9f57610f9e611626565b5b6000610fad84828501610dd6565b91505092915050565b60008060408385031215610fcd57610fcc611626565b5b6000610fdb85828601610dc1565b9250506020610fec85828601610dc1565b9150509250929050565b60008060006060848603121561100f5761100e611626565b5b600061101d86828701610dd6565b935050602061102e86828701610dd6565b925050604061103f86828701610dd6565b9150509250925092565b60006110558383611061565b60208301905092915050565b61106a81611494565b82525050565b61107981611494565b82525050565b600061108a82611345565b611094818561135d565b935061109f83611335565b8060005b838110156110d05781516110b78882611049565b97506110c283611350565b9250506001810190506110a3565b5085935050505092915050565b6110e681611506565b82525050565b6110f581611518565b82525050565b600061110860058361136e565b91506111138261163c565b602082019050919050565b611127816114ec565b82525050565b60006020820190506111426000830184611070565b92915050565b600060408201905061115d6000830185611070565b61116a6020830184611070565b9392505050565b60006060820190506111866000830186611070565b6111936020830185611070565b6111a0604083018461111e565b949350505050565b6000610100820190506111be600083018b611070565b6111cb602083018a611070565b6111d8604083018961111e565b6111e5606083018861111e565b6111f260808301876110dd565b6111ff60a08301866110dd565b61120c60c0830185611070565b61121960e083018461111e565b9998505050505050505050565b600060408201905061123b6000830185611070565b611248602083018461111e565b9392505050565b60006020820190508181036000830152611268816110fb565b9050919050565b6000602082019050611284600083018461111e565b92915050565b600060a08201905061129f600083018861111e565b6112ac60208301876110ec565b81810360408301526112be818661107f565b90506112cd6060830185611070565b6112da608083018461111e565b9695505050505050565b60006112ee6112ff565b90506112fa828261152a565b919050565b6000604051905090565b600067ffffffffffffffff821115611324576113236115e8565b5b602082029050602081019050919050565b6000819050602082019050919050565b600081519050919050565b6000602082019050919050565b600082825260208201905092915050565b600082825260208201905092915050565b600061138a826114ec565b9150611395836114ec565b9250827fffffffffffffffffffffffffffffffffffffffffffffffffffffffffffffffff038211156113ca576113c961155b565b5b828201905092915050565b60006113e0826114ec565b91506113eb836114ec565b9250826113fb576113fa61158a565b5b828204905092915050565b6000611411826114ec565b915061141c836114ec565b9250817fffffffffffffffffffffffffffffffffffffffffffffffffffffffffffffffff04831182151516156114555761145461155b565b5b828202905092915050565b600061146b826114ec565b9150611476836114ec565b9250828210156114895761148861155b565b5b828203905092915050565b600061149f826114cc565b9050919050565b60008115159050919050565b60006dffffffffffffffffffffffffffff82169050919050565b600073ffffffffffffffffffffffffffffffffffffffff82169050919050565b6000819050919050565b600063ffffffff82169050919050565b6000611511826114ec565b9050919050565b6000611523826114ec565b9050919050565b6115338261162b565b810181811067ffffffffffffffff82111715611552576115516115e8565b5b80604052505050565b7f4e487b7100000000000000000000000000000000000000000000000000000000600052601160045260246000fd5b7f4e487b7100000000000000000000000000000000000000000000000000000000600052601260045260246000fd5b7f4e487b7100000000000000000000000000000000000000000000000000000000600052603260045260246000fd5b7f4e487b7100000000000000000000000000000000000000000000000000000000600052604160045260246000fd5b600080fd5b600080fd5b600080fd5b600080fd5b6000601f19601f8301169050919050565b7f2177657468000000000000000000000000000000000000000000000000000000600082015250565b61166e81611494565b811461167957600080fd5b50565b611685816114a6565b811461169057600080fd5b50565b61169c816114b2565b81146116a757600080fd5b50565b6116b3816114ec565b81146116be57600080fd5b50565b6116ca816114f6565b81146116d557600080fd5b5056fea26469706673582212201933a903deca592342e74268558e579d4d8d401446d65ac836ee5d0c2a3311c164736f6c63430008070033",
  "immutableReferences": {},
  "source": "// SPDX-License-Identifier: MIT\npragma solidity >=0.7.0 <0.9.0;\n\nimport \"@openzeppelin/contracts/utils/math/SafeMath.sol\";\nimport \"@openzeppelin/contracts/token/ERC20/IERC20.sol\";\nimport \"./interfaces/Uniswap.sol\";\n\ncontract TestUniswapOptimal {\n  using SafeMath for uint;\n\n  address private constant FACTORY = 0x5C69bEe701ef814a2B6a3EDD4B1652CB9cc5aA6f;\n  address private constant ROUTER = 0x7a250d5630B4cF539739dF2C5dAcb4c659F2488D;\n  address private constant WETH = 0xC02aaA39b223FE8D0A0e5C4F27eAD9083C756Cc2;\n\n  // import \"@uniswap/lib/contracts/libraries/Babylonian.sol\";\n  function sqrt(uint y) internal pure returns (uint z) {\n    if (y > 3) {\n      z = y;\n      uint x = y / 2 + 1;\n      while (x < z) {\n        z = x;\n        x = (y / x + x) / 2;\n      }\n    } else if (y != 0) {\n      z = 1;\n    }\n    // else z = 0 (default value)\n  }\n\n  /*\n  s = optimal swap amount\n  r = amount of reserve for token a\n  a = amount of token a the user currently has (not added to reserve yet)\n  f = swap fee percent\n  s = (sqrt(((2 - f)r)^2 + 4(1 - f)ar) - (2 - f)r) / (2(1 - f))\n  */\n  function getSwapAmount(uint r, uint a) public pure returns (uint) {\n    return (sqrt(r.mul(r.mul(3988009) + a.mul(3988000))).sub(r.mul(1997))) / 1994;\n  }\n\n  /* optimal one-sided supply\n  1. swap optimal amount from token A to token B\n  2. add liquidity\n  */\n  function zap(\n    address _tokenA,\n    address _tokenB,\n    uint _amountA\n  ) external {\n    require(_tokenA == WETH || _tokenB == WETH, \"!weth\");\n\n    IERC20(_tokenA).transferFrom(msg.sender, address(this), _amountA);\n\n    address pair = IUniswapV2Factory(FACTORY).getPair(_tokenA, _tokenB);\n    (uint reserve0, uint reserve1, ) = IUniswapV2Pair(pair).getReserves();\n\n    uint swapAmount;\n    if (IUniswapV2Pair(pair).token0() == _tokenA) {\n      // swap from token0 to token1\n      swapAmount = getSwapAmount(reserve0, _amountA);\n    } else {\n      // swap from token1 to token0\n      swapAmount = getSwapAmount(reserve1, _amountA);\n    }\n\n    _swap(_tokenA, _tokenB, swapAmount);\n    _addLiquidity(_tokenA, _tokenB);\n  }\n\n  /* sub-optimal one-sided supply\n  1. swap half of token A to token B\n  2. add liquidity\n  */\n  function subOptimalZap(\n    address _tokenA,\n    address _tokenB,\n    uint _amountA\n  ) external {\n    IERC20(_tokenA).transferFrom(msg.sender, address(this), _amountA);\n\n    _swap(_tokenA, _tokenB, _amountA.div(2));\n    _addLiquidity(_tokenA, _tokenB);\n  }\n\n  function _swap(\n    address _from,\n    address _to,\n    uint _amount\n  ) internal {\n    IERC20(_from).approve(ROUTER, _amount);\n\n    address[] memory path = new address[](2);\n    path = new address[](2);\n    path[0] = _from;\n    path[1] = _to;\n\n    IUniswapV2Router(ROUTER).swapExactTokensForTokens(\n      _amount,\n      1,\n      path,\n      address(this),\n      block.timestamp\n    );\n  }\n\n  function _addLiquidity(address _tokenA, address _tokenB) internal {\n    uint balA = IERC20(_tokenA).balanceOf(address(this));\n    uint balB = IERC20(_tokenB).balanceOf(address(this));\n    IERC20(_tokenA).approve(ROUTER, balA);\n    IERC20(_tokenB).approve(ROUTER, balB);\n\n    IUniswapV2Router(ROUTER).addLiquidity(\n      _tokenA,\n      _tokenB,\n      balA,\n      balB,\n      0,\n      0,\n      address(this),\n      block.timestamp\n    );\n  }\n\n  function getPair(address _tokenA, address _tokenB) external view returns (address) {\n    return IUniswapV2Factory(FACTORY).getPair(_tokenA, _tokenB);\n  }\n}\n",
  "sourcePath": "/home/dionmars/Desktop/dion/contracts/TestUniswapOptimal.sol",
  "compiler": {
    "name": "solc",
    "version": "0.8.7+commit.e28d00a7.Emscripten.clang"
  },
  "schemaVersion": "3.4.3",
  "updatedAt": "2021-10-23T17:57:03.452Z",
  "devdoc": {
    "kind": "dev",
    "methods": {},
    "version": 1
  },
  "userdoc": {
    "kind": "user",
    "methods": {},
    "version": 1
  }
}